{
  "_format": "hh-sol-artifact-1",
  "contractName": "ConfidentialDonation",
  "sourceName": "contracts/ConfidentialDonation.sol",
  "abi": [
    {
      "inputs": [],
      "stateMutability": "nonpayable",
      "type": "constructor"
    },
    {
      "inputs": [
        {
          "internalType": "address",
          "name": "owner",
          "type": "address"
        }
      ],
      "name": "OwnableInvalidOwner",
      "type": "error"
    },
    {
      "inputs": [
        {
          "internalType": "address",
          "name": "account",
          "type": "address"
        }
      ],
      "name": "OwnableUnauthorizedAccount",
      "type": "error"
    },
    {
      "inputs": [],
      "name": "ReentrancyGuardReentrantCall",
      "type": "error"
    },
    {
      "anonymous": false,
      "inputs": [
        {
          "indexed": true,
          "internalType": "uint256",
          "name": "campaignId",
          "type": "uint256"
        },
        {
          "indexed": true,
          "internalType": "address",
          "name": "owner",
          "type": "address"
        },
        {
          "indexed": false,
          "internalType": "string",
          "name": "name",
          "type": "string"
        },
        {
          "indexed": false,
          "internalType": "uint256",
          "name": "goal",
          "type": "uint256"
        }
      ],
      "name": "CampaignCreated",
      "type": "event"
    },
    {
      "anonymous": false,
      "inputs": [
        {
          "indexed": true,
          "internalType": "uint256",
          "name": "campaignId",
          "type": "uint256"
        },
        {
          "indexed": true,
          "internalType": "address",
          "name": "donor",
          "type": "address"
        },
        {
          "indexed": false,
          "internalType": "string",
          "name": "encryptedPayload",
          "type": "string"
        }
      ],
      "name": "DonationReceived",
      "type": "event"
    },
    {
      "anonymous": false,
      "inputs": [
        {
          "indexed": true,
          "internalType": "uint256",
          "name": "campaignId",
          "type": "uint256"
        },
        {
          "indexed": true,
          "internalType": "address",
          "name": "owner",
          "type": "address"
        },
        {
          "indexed": false,
          "internalType": "uint256",
          "name": "amount",
          "type": "uint256"
        }
      ],
      "name": "FundsWithdrawn",
      "type": "event"
    },
    {
      "anonymous": false,
      "inputs": [
        {
          "indexed": true,
          "internalType": "address",
          "name": "previousOwner",
          "type": "address"
        },
        {
          "indexed": true,
          "internalType": "address",
          "name": "newOwner",
          "type": "address"
        }
      ],
      "name": "OwnershipTransferred",
      "type": "event"
    },
    {
      "inputs": [],
      "name": "campaignCount",
      "outputs": [
        {
          "internalType": "uint256",
          "name": "",
          "type": "uint256"
        }
      ],
      "stateMutability": "view",
      "type": "function"
    },
    {
      "inputs": [
        {
          "internalType": "uint256",
          "name": "",
          "type": "uint256"
        },
        {
          "internalType": "uint256",
          "name": "",
          "type": "uint256"
        }
      ],
      "name": "campaignDonations",
      "outputs": [
        {
          "internalType": "address",
          "name": "donor",
          "type": "address"
        },
        {
          "internalType": "string",
          "name": "encryptedPayload",
          "type": "string"
        },
        {
          "internalType": "uint256",
          "name": "timestamp",
          "type": "uint256"
        }
      ],
      "stateMutability": "view",
      "type": "function"
    },
    {
      "inputs": [
        {
          "internalType": "uint256",
          "name": "",
          "type": "uint256"
        }
      ],
      "name": "campaigns",
      "outputs": [
        {
          "internalType": "uint256",
          "name": "id",
          "type": "uint256"
        },
        {
          "internalType": "address payable",
          "name": "owner",
          "type": "address"
        },
        {
          "internalType": "string",
          "name": "name",
          "type": "string"
        },
        {
          "internalType": "string",
          "name": "description",
          "type": "string"
        },
        {
          "internalType": "uint256",
          "name": "goal",
          "type": "uint256"
        },
        {
          "internalType": "uint256",
          "name": "totalFunds",
          "type": "uint256"
        },
        {
          "internalType": "bool",
          "name": "isActive",
          "type": "bool"
        }
      ],
      "stateMutability": "view",
      "type": "function"
    },
    {
      "inputs": [
        {
          "internalType": "string",
          "name": "_name",
          "type": "string"
        },
        {
          "internalType": "string",
          "name": "_description",
          "type": "string"
        },
        {
          "internalType": "uint256",
          "name": "_goal",
          "type": "uint256"
        }
      ],
      "name": "createCampaign",
      "outputs": [],
      "stateMutability": "nonpayable",
      "type": "function"
    },
    {
      "inputs": [
        {
          "internalType": "uint256",
          "name": "_campaignId",
          "type": "uint256"
        },
        {
          "internalType": "string",
          "name": "_encryptedPayload",
          "type": "string"
        }
      ],
      "name": "donate",
      "outputs": [],
      "stateMutability": "payable",
      "type": "function"
    },
    {
      "inputs": [
        {
          "internalType": "uint256",
          "name": "_campaignId",
          "type": "uint256"
        },
        {
          "internalType": "uint256",
          "name": "_index",
          "type": "uint256"
        }
      ],
      "name": "getDonation",
      "outputs": [
        {
          "internalType": "address",
          "name": "",
          "type": "address"
        },
        {
          "internalType": "string",
          "name": "",
          "type": "string"
        },
        {
          "internalType": "uint256",
          "name": "",
          "type": "uint256"
        }
      ],
      "stateMutability": "view",
      "type": "function"
    },
    {
      "inputs": [
        {
          "internalType": "uint256",
          "name": "_campaignId",
          "type": "uint256"
        }
      ],
      "name": "getDonationsCount",
      "outputs": [
        {
          "internalType": "uint256",
          "name": "",
          "type": "uint256"
        }
      ],
      "stateMutability": "view",
      "type": "function"
    },
    {
      "inputs": [],
      "name": "owner",
      "outputs": [
        {
          "internalType": "address",
          "name": "",
          "type": "address"
        }
      ],
      "stateMutability": "view",
      "type": "function"
    },
    {
      "inputs": [],
      "name": "renounceOwnership",
      "outputs": [],
      "stateMutability": "nonpayable",
      "type": "function"
    },
    {
      "inputs": [
        {
          "internalType": "address",
          "name": "newOwner",
          "type": "address"
        }
      ],
      "name": "transferOwnership",
      "outputs": [],
      "stateMutability": "nonpayable",
      "type": "function"
    },
    {
      "inputs": [
        {
          "internalType": "uint256",
          "name": "_campaignId",
          "type": "uint256"
        }
      ],
      "name": "withdrawFunds",
      "outputs": [],
      "stateMutability": "nonpayable",
      "type": "function"
    }
  ],
  "bytecode": "0x60806040523480156200001157600080fd5b503360016200003562000029620000c960201b60201c565b620000f460201b60201c565b60000181905550600073ffffffffffffffffffffffffffffffffffffffff168173ffffffffffffffffffffffffffffffffffffffff1603620000b15760006040517f1e4fbdf7000000000000000000000000000000000000000000000000000000008152600401620000a8919062000207565b60405180910390fd5b620000c281620000fe60201b60201c565b5062000224565b60007f9b779b17422d0df92223018b32b4d1fa46e071723d6817e2486d003becc55f0060001b905090565b6000819050919050565b60008060009054906101000a900473ffffffffffffffffffffffffffffffffffffffff169050816000806101000a81548173ffffffffffffffffffffffffffffffffffffffff021916908373ffffffffffffffffffffffffffffffffffffffff1602179055508173ffffffffffffffffffffffffffffffffffffffff168173ffffffffffffffffffffffffffffffffffffffff167f8be0079c531659141344cd1fd0a4f28419497f9722a3daafe3b4186f6b6457e060405160405180910390a35050565b600073ffffffffffffffffffffffffffffffffffffffff82169050919050565b6000620001ef82620001c2565b9050919050565b6200020181620001e2565b82525050565b60006020820190506200021e6000830184620001f6565b92915050565b611d5a80620002346000396000f3fe60806040526004361061009c5760003560e01c80637274e30d116100645780637274e30d146101a057806376ff7bf4146101cb5780638d59d1f11461020a5780638da5cb5b14610226578063f2fde38b14610251578063ffa56a571461027a5761009c565b8063141961bc146100a1578063155dd5ee146100e4578063683d6e581461010d57806370879ff71461014a578063715018a614610189575b600080fd5b3480156100ad57600080fd5b506100c860048036038101906100c3919061105f565b6102a3565b6040516100db9796959493929190611187565b60405180910390f35b3480156100f057600080fd5b5061010b6004803603810190610106919061105f565b610422565b005b34801561011957600080fd5b50610134600480360381019061012f919061105f565b61065a565b6040516101419190611204565b60405180910390f35b34801561015657600080fd5b50610171600480360381019061016c919061121f565b61067a565b60405161018093929190611280565b60405180910390f35b34801561019557600080fd5b5061019e610769565b005b3480156101ac57600080fd5b506101b561077d565b6040516101c29190611204565b60405180910390f35b3480156101d757600080fd5b506101f260048036038101906101ed919061121f565b610783565b60405161020193929190611280565b60405180910390f35b610224600480360381019061021f91906113f3565b610932565b005b34801561023257600080fd5b5061023b610b32565b604051610248919061144f565b60405180910390f35b34801561025d57600080fd5b5061027860048036038101906102739190611496565b610b5b565b005b34801561028657600080fd5b506102a1600480360381019061029c91906114c3565b610be1565b005b60026020528060005260406000206000915090508060000154908060010160009054906101000a900473ffffffffffffffffffffffffffffffffffffffff16908060020180546102f29061157d565b80601f016020809104026020016040519081016040528092919081815260200182805461031e9061157d565b801561036b5780601f106103405761010080835404028352916020019161036b565b820191906000526020600020905b81548152906001019060200180831161034e57829003601f168201915b5050505050908060030180546103809061157d565b80601f01602080910402602001604051908101604052809291908181526020018280546103ac9061157d565b80156103f95780601f106103ce576101008083540402835291602001916103f9565b820191906000526020600020905b8154815290600101906020018083116103dc57829003601f168201915b5050505050908060040154908060050154908060060160009054906101000a900460ff16905087565b61042a610df0565b60006002600083815260200190815260200160002090508060010160009054906101000a900473ffffffffffffffffffffffffffffffffffffffff1673ffffffffffffffffffffffffffffffffffffffff163373ffffffffffffffffffffffffffffffffffffffff16146104d3576040517f08c379a00000000000000000000000000000000000000000000000000000000081526004016104ca906115fa565b60405180910390fd5b600081600501541161051a576040517f08c379a000000000000000000000000000000000000000000000000000000000815260040161051190611666565b60405180910390fd5b6000816005015490506000826005018190555060008260010160009054906101000a900473ffffffffffffffffffffffffffffffffffffffff1673ffffffffffffffffffffffffffffffffffffffff1682604051610577906116b7565b60006040518083038185875af1925050503d80600081146105b4576040519150601f19603f3d011682016040523d82523d6000602084013e6105b9565b606091505b50509050806105fd576040517f08c379a00000000000000000000000000000000000000000000000000000000081526004016105f490611718565b60405180910390fd5b3373ffffffffffffffffffffffffffffffffffffffff16847ff440aec6b52895984d061d622e6edeba6210f7c3e059be920663140c084560d7846040516106449190611204565b60405180910390a3505050610657610e13565b50565b600060036000838152602001908152602001600020805490509050919050565b6003602052816000526040600020818154811061069657600080fd5b9060005260206000209060030201600091509150508060000160009054906101000a900473ffffffffffffffffffffffffffffffffffffffff16908060010180546106e09061157d565b80601f016020809104026020016040519081016040528092919081815260200182805461070c9061157d565b80156107595780601f1061072e57610100808354040283529160200191610759565b820191906000526020600020905b81548152906001019060200180831161073c57829003601f168201915b5050505050908060020154905083565b610771610e2e565b61077b6000610eb5565b565b60015481565b600060606000600360008681526020019081526020016000208054905084106107e1576040517f08c379a00000000000000000000000000000000000000000000000000000000081526004016107d890611784565b60405180910390fd5b6000600360008781526020019081526020016000208581548110610808576108076117a4565b5b90600052602060002090600302016040518060600160405290816000820160009054906101000a900473ffffffffffffffffffffffffffffffffffffffff1673ffffffffffffffffffffffffffffffffffffffff1673ffffffffffffffffffffffffffffffffffffffff1681526020016001820180546108879061157d565b80601f01602080910402602001604051908101604052809291908181526020018280546108b39061157d565b80156109005780601f106108d557610100808354040283529160200191610900565b820191906000526020600020905b8154815290600101906020018083116108e357829003601f168201915b505050505081526020016002820154815250509050806000015181602001518260400151935093509350509250925092565b61093a610df0565b6000341161097d576040517f08c379a000000000000000000000000000000000000000000000000000000000815260040161097490611845565b60405180910390fd5b60006002600084815260200190815260200160002090508060060160009054906101000a900460ff166109e5576040517f08c379a00000000000000000000000000000000000000000000000000000000081526004016109dc906118b1565b60405180910390fd5b348160050160008282546109f99190611900565b925050819055506003600084815260200190815260200160002060405180606001604052803373ffffffffffffffffffffffffffffffffffffffff16815260200184815260200142815250908060018154018082558091505060019003906000526020600020906003020160009091909190915060008201518160000160006101000a81548173ffffffffffffffffffffffffffffffffffffffff021916908373ffffffffffffffffffffffffffffffffffffffff1602179055506020820151816001019081610ac99190611ae0565b506040820151816002015550503373ffffffffffffffffffffffffffffffffffffffff16837fb484d68a6e2ddeb7f352db730640bb3bc7bc6dad0ed0848c974c5bd525d0fbdb84604051610b1d9190611bb2565b60405180910390a350610b2e610e13565b5050565b60008060009054906101000a900473ffffffffffffffffffffffffffffffffffffffff16905090565b610b63610e2e565b600073ffffffffffffffffffffffffffffffffffffffff168173ffffffffffffffffffffffffffffffffffffffff1603610bd55760006040517f1e4fbdf7000000000000000000000000000000000000000000000000000000008152600401610bcc919061144f565b60405180910390fd5b610bde81610eb5565b50565b6000835111610c25576040517f08c379a0000000000000000000000000000000000000000000000000000000008152600401610c1c90611c20565b60405180910390fd5b60008111610c68576040517f08c379a0000000000000000000000000000000000000000000000000000000008152600401610c5f90611c8c565b60405180910390fd5b60016000815480929190610c7b90611cac565b91905055506040518060e0016040528060015481526020013373ffffffffffffffffffffffffffffffffffffffff16815260200184815260200183815260200182815260200160008152602001600115158152506002600060015481526020019081526020016000206000820151816000015560208201518160010160006101000a81548173ffffffffffffffffffffffffffffffffffffffff021916908373ffffffffffffffffffffffffffffffffffffffff1602179055506040820151816002019081610d4a9190611ae0565b506060820151816003019081610d609190611ae0565b506080820151816004015560a0820151816005015560c08201518160060160006101000a81548160ff0219169083151502179055509050503373ffffffffffffffffffffffffffffffffffffffff166001547f825fb10f7650ed27414d6f86acdf7d5946927d9b25001f045f1a2435deec02fe8584604051610de3929190611cf4565b60405180910390a3505050565b610df8610f79565b6002610e0a610e05610fba565b610fe5565b60000181905550565b6001610e25610e20610fba565b610fe5565b60000181905550565b610e36610fef565b73ffffffffffffffffffffffffffffffffffffffff16610e54610b32565b73ffffffffffffffffffffffffffffffffffffffff1614610eb357610e77610fef565b6040517f118cdaa7000000000000000000000000000000000000000000000000000000008152600401610eaa919061144f565b60405180910390fd5b565b60008060009054906101000a900473ffffffffffffffffffffffffffffffffffffffff169050816000806101000a81548173ffffffffffffffffffffffffffffffffffffffff021916908373ffffffffffffffffffffffffffffffffffffffff1602179055508173ffffffffffffffffffffffffffffffffffffffff168173ffffffffffffffffffffffffffffffffffffffff167f8be0079c531659141344cd1fd0a4f28419497f9722a3daafe3b4186f6b6457e060405160405180910390a35050565b610f81610ff7565b15610fb8576040517f3ee5aeb500000000000000000000000000000000000000000000000000000000815260040160405180910390fd5b565b60007f9b779b17422d0df92223018b32b4d1fa46e071723d6817e2486d003becc55f0060001b905090565b6000819050919050565b600033905090565b6000600261100b611006610fba565b610fe5565b6000015414905090565b6000604051905090565b600080fd5b600080fd5b6000819050919050565b61103c81611029565b811461104757600080fd5b50565b60008135905061105981611033565b92915050565b6000602082840312156110755761107461101f565b5b60006110838482850161104a565b91505092915050565b61109581611029565b82525050565b600073ffffffffffffffffffffffffffffffffffffffff82169050919050565b60006110c68261109b565b9050919050565b6110d6816110bb565b82525050565b600081519050919050565b600082825260208201905092915050565b60005b838110156111165780820151818401526020810190506110fb565b60008484015250505050565b6000601f19601f8301169050919050565b600061113e826110dc565b61114881856110e7565b93506111588185602086016110f8565b61116181611122565b840191505092915050565b60008115159050919050565b6111818161116c565b82525050565b600060e08201905061119c600083018a61108c565b6111a960208301896110cd565b81810360408301526111bb8188611133565b905081810360608301526111cf8187611133565b90506111de608083018661108c565b6111eb60a083018561108c565b6111f860c0830184611178565b98975050505050505050565b6000602082019050611219600083018461108c565b92915050565b600080604083850312156112365761123561101f565b5b60006112448582860161104a565b92505060206112558582860161104a565b9150509250929050565b600061126a8261109b565b9050919050565b61127a8161125f565b82525050565b60006060820190506112956000830186611271565b81810360208301526112a78185611133565b90506112b6604083018461108c565b949350505050565b600080fd5b600080fd5b7f4e487b7100000000000000000000000000000000000000000000000000000000600052604160045260246000fd5b61130082611122565b810181811067ffffffffffffffff8211171561131f5761131e6112c8565b5b80604052505050565b6000611332611015565b905061133e82826112f7565b919050565b600067ffffffffffffffff82111561135e5761135d6112c8565b5b61136782611122565b9050602081019050919050565b82818337600083830152505050565b600061139661139184611343565b611328565b9050828152602081018484840111156113b2576113b16112c3565b5b6113bd848285611374565b509392505050565b600082601f8301126113da576113d96112be565b5b81356113ea848260208601611383565b91505092915050565b6000806040838503121561140a5761140961101f565b5b60006114188582860161104a565b925050602083013567ffffffffffffffff81111561143957611438611024565b5b611445858286016113c5565b9150509250929050565b60006020820190506114646000830184611271565b92915050565b6114738161125f565b811461147e57600080fd5b50565b6000813590506114908161146a565b92915050565b6000602082840312156114ac576114ab61101f565b5b60006114ba84828501611481565b91505092915050565b6000806000606084860312156114dc576114db61101f565b5b600084013567ffffffffffffffff8111156114fa576114f9611024565b5b611506868287016113c5565b935050602084013567ffffffffffffffff81111561152757611526611024565b5b611533868287016113c5565b92505060406115448682870161104a565b9150509250925092565b7f4e487b7100000000000000000000000000000000000000000000000000000000600052602260045260246000fd5b6000600282049050600182168061159557607f821691505b6020821081036115a8576115a761154e565b5b50919050565b7f4f6e6c792063616d706169676e206f776e65722063616e207769746864726177600082015250565b60006115e46020836110e7565b91506115ef826115ae565b602082019050919050565b60006020820190508181036000830152611613816115d7565b9050919050565b7f4e6f2066756e647320746f207769746864726177000000000000000000000000600082015250565b60006116506014836110e7565b915061165b8261161a565b602082019050919050565b6000602082019050818103600083015261167f81611643565b9050919050565b600081905092915050565b50565b60006116a1600083611686565b91506116ac82611691565b600082019050919050565b60006116c282611694565b9150819050919050565b7f5769746864726177616c206661696c6564000000000000000000000000000000600082015250565b60006117026011836110e7565b915061170d826116cc565b602082019050919050565b60006020820190508181036000830152611731816116f5565b9050919050565b7f496e646578206f7574206f6620626f756e647300000000000000000000000000600082015250565b600061176e6013836110e7565b915061177982611738565b602082019050919050565b6000602082019050818103600083015261179d81611761565b9050919050565b7f4e487b7100000000000000000000000000000000000000000000000000000000600052603260045260246000fd5b7f446f6e6174696f6e20616d6f756e74206d75737420626520677265617465722060008201527f7468616e20300000000000000000000000000000000000000000000000000000602082015250565b600061182f6026836110e7565b915061183a826117d3565b604082019050919050565b6000602082019050818103600083015261185e81611822565b9050919050565b7f43616d706169676e206973206e6f742061637469766500000000000000000000600082015250565b600061189b6016836110e7565b91506118a682611865565b602082019050919050565b600060208201905081810360008301526118ca8161188e565b9050919050565b7f4e487b7100000000000000000000000000000000000000000000000000000000600052601160045260246000fd5b600061190b82611029565b915061191683611029565b925082820190508082111561192e5761192d6118d1565b5b92915050565b60008190508160005260206000209050919050565b60006020601f8301049050919050565b600082821b905092915050565b6000600883026119967fffffffffffffffffffffffffffffffffffffffffffffffffffffffffffffffff82611959565b6119a08683611959565b95508019841693508086168417925050509392505050565b6000819050919050565b60006119dd6119d86119d384611029565b6119b8565b611029565b9050919050565b6000819050919050565b6119f7836119c2565b611a0b611a03826119e4565b848454611966565b825550505050565b600090565b611a20611a13565b611a2b8184846119ee565b505050565b5b81811015611a4f57611a44600082611a18565b600181019050611a31565b5050565b601f821115611a9457611a6581611934565b611a6e84611949565b81016020851015611a7d578190505b611a91611a8985611949565b830182611a30565b50505b505050565b600082821c905092915050565b6000611ab760001984600802611a99565b1980831691505092915050565b6000611ad08383611aa6565b9150826002028217905092915050565b611ae9826110dc565b67ffffffffffffffff811115611b0257611b016112c8565b5b611b0c825461157d565b611b17828285611a53565b600060209050601f831160018114611b4a5760008415611b38578287015190505b611b428582611ac4565b865550611baa565b601f198416611b5886611934565b60005b82811015611b8057848901518255600182019150602085019450602081019050611b5b565b86831015611b9d5784890151611b99601f891682611aa6565b8355505b6001600288020188555050505b505050505050565b60006020820190508181036000830152611bcc8184611133565b905092915050565b7f4e616d652063616e6e6f7420626520656d707479000000000000000000000000600082015250565b6000611c0a6014836110e7565b9150611c1582611bd4565b602082019050919050565b60006020820190508181036000830152611c3981611bfd565b9050919050565b7f476f616c206d7573742062652067726561746572207468616e20300000000000600082015250565b6000611c76601b836110e7565b9150611c8182611c40565b602082019050919050565b60006020820190508181036000830152611ca581611c69565b9050919050565b6000611cb782611029565b91507fffffffffffffffffffffffffffffffffffffffffffffffffffffffffffffffff8203611ce957611ce86118d1565b5b600182019050919050565b60006040820190508181036000830152611d0e8185611133565b9050611d1d602083018461108c565b939250505056fea26469706673582212209439ce45be08e25b8923808f2d4f40c28d750cb9ce23763fa94c0bfb13aabf4c64736f6c63430008180033",
  "linkReferences": {},
  "deployedLinkReferences": {}
}